:100000000C9490010C94B3240C94BD240C94C7243C
:100010000C94D1240C94DB240C94E5240C94EF2450
:100020000C94F9240C94AF010C94AF010C94AF0123
:100030000C94AF010C9442240C94AF010C948B24CB
:100040000C9464260C9415260C944E260C94592678
:100050000C949D260C94AF010C94AF010C94AF014D
:100060000C9479250C94C8260C94AF010C943C2771
:100070000C94AF010C9403250C94AF010C948328CD
:100080000C9462280C946D280C9478280C94962873
:100090000C9446280C94AF010C9457280C94AF0193
:1000A0000C94AF010C94AF010C94AF010C94AF0110
:1000B0000C94AF010C94AF010C94AF010C94AF0100
:1000C0000C94AF010C94AF010C94AF0103163016E1
:1000D000781610171E176B1783178517B11730186E
:1000E0004E18B4181E19031C651C0E1C231C951CED
:1000F000301D641D871DC01E8C1F5F20CB20CE20AD
:10010000D9200021222150217321A727B227C727F8
:100110000E2815281C2823282A2800020E060C0465
:1001200000002110422063308440A550C660E77073
:10013000088129914AA16BB18CC1ADD1CEE1EFF11B
:100140003112100273325222B5529442F772D662C3
:10015000399318837BB35AA3BDD39CC3FFF3DEE36B
:100160006224433420040114E664C774A444855413
:100170006AA54BB528850995EEE5CFF5ACC58DD5BB
:100180005336722611163006D776F6669556B44663
:100190005BB77AA719973887DFF7FEE79DD7BCC70B
:1001A000C448E5588668A7784008611802282338B3
:1001B000CCC9EDD98EE9AFF9488969990AA92BB95B
:1001C000F55AD44AB77A966A711A500A333A122A03
:1001D000FDDBDCCBBFFB9EEB799B588B3BBB1AABAB
:1001E000A66C877CE44CC55C222C033C600C411C53
:1001F000AEED8FFDECCDCDDD2AAD0BBD688D499DFB
:10020000977EB66ED55EF44E133E322E511E700EA2
:100210009FFFBEEFDDDFFCCF1BBF3AAF599F788F4A
:100220008891A981CAB1EBA10CD12DC14EF16FE12A
:100230008010A100C230E320045025404670676062
:10024000B9839893FBA3DAB33DC31CD37FE35EF37A
:10025000B1029012F322D2323542145277625672B2
:10026000EAB5CBA5A89589856EF54FE52CD50DC5CA
:10027000E234C324A0148104667447642454054402
:10028000DBA7FAB79987B8975FE77EF71DC73CD71A
:10029000D326F2369106B016576676761546345652
:1002A0004CD96DC90EF92FE9C899E9898AB9ABA96A
:1002B0004458654806782768C018E1088238A328A2
:1002C0007DCB5CDB3FEB1EFBF98BD89BBBAB9ABBBA
:1002D000754A545A376A167AF10AD01AB32A923AF2
:1002E0002EFD0FED6CDD4DCDAABD8BADE89DC98D0A
:1002F000267C076C645C454CA23C832CE01CC10C42
:100300001FEF3EFF5DCF7CDF9BAFBABFD98FF89F59
:10031000176E367E554E745E932EB23ED10EF01E91
:1003200011241FBECFEFD1E2DEBFCDBF12E0A0E0AF
:10033000B2E0E4E2FDE500E00BBF02C007900D92E1
:10034000AC31B107D9F71FE0ACE1B2E001C01D92BA
:10035000A131B107E1F70E94D12A0C94902E0C94A0
:1003600000002F980895289A08959FB7F8948091D7
:100370004D098F5F80934D099FBF08950DB407FE0F
:10038000FDCF8EB50895982F0DB407FEFDCF8EB525
:100390009EBD0895289808958627082E8295807F0F
:1003A0008025092E982F82958F700826869598278C
:1003B0008927880F880F880F80250895E3EDFBE0DB
:1003C0001182108284E08093300310924C091092C5
:1003D000ED0B1092630310923504109234040895CB
:1003E0008091250C8F3F69F0E82FF0E0E656FD4F35
:1003F00090819093250C9F3F11F49093EC0E9FEF0A
:10040000908308958091B0008093B0008091B600F1
:1004100081FDFCCF08959FB7F894E82FF0E0E656F1
:10042000FD4F20812F3F99F4E091EC0EE81779F011
:100430002091250C2F3F19F48093250C04C0F0E087
:10044000E656FD4F80838093EC0E80E001C085E08E
:100450009FBF0895CF93CFB7F8948091100D81116D
:1004600008C086E10E940B02811103C081E08093E5
:10047000100DCFBFCF91089581E10C940B028EE156
:100480000C940B0284E10C940B0282E00C940B029E
:100490008BE00C940B0290912A02E92FF0E0EE0F12
:1004A000FF1FEC54FC4F40815181209128022223F0
:1004B00059F09F5F943119F090932A0202C0109274
:1004C0002A02215020932802CA010895AC0190917C
:1004D000CE029431B8F48091090F292F30E0280F13
:1004E000311D2431310514F024513109220F331FFD
:1004F000F901E85AFD4F518340839F5F9093CE02EC
:1005000080E0089581E00895129811981098E0EB2A
:10051000F4E080818D7F80830895AC019091D402B6
:100520009A30B8F480919002292F30E0280F311DC5
:100530002A30310514F02A503109220F331FF901F6
:10054000E25DF34F518340839F5F9093D40280E03C
:10055000089581E008953091CE023323C1F02091B7
:10056000090FE22FF0E0EE0FFF1FE85AFD4F8081E8
:1005700091811182108231503093CE022F5F24314D
:1005800019F02093090F08951092090F089580E043
:1005900090E00895AC01209128022431C0F490919C
:1005A0002902E92FF0E0EE0FFF1FEC54FC4F5183BE
:1005B000408381E0890F843119F08093290202C0C1
:1005C000109229022F5F2093280280E0089581E095
:1005D00008952FB7F8943091B200809195029091D0
:1005E0009602A0919702B0919802B99B0BC04091DE
:1005F000B3003091B2000196A11DB11D840F911D71
:10060000A11DB11DBC01CD01630F711D811D911D87
:100610002FBF0895CF92DF92EF92FF928091B004A6
:1006200081FF03C08D7F8093B004C090DE03D12C86
:10063000DC2CCC248091DF03C82AE12CF12C0E9411
:10064000E9026093A8047093A9048093AA0490938C
:10065000AB04C092AC04D092AD04E092AE04F09230
:10066000AF048091B0048E7F82608093B0040E94BA
:10067000450210928002FF90EF90DF90CF90089596
:10068000809146098A3021F480913003843021F032
:1006900081E080933F02089588E10E940B0210924E
:1006A0003F0208959C01E8E3F4E090E0858180FF3B
:1006B00005C0408151814217530731F09F5F3B963F
:1006C0009A30A1F78FEF0895892F08950E94520361
:1006D0008F3F61F09BE0899FF0011124E85CFB4FA4
:1006E000858181FF03C08781908508958FEF9FEFFB
:1006F00008954F925F926F927F928F929F92AF92E6
:10070000BF92CF92DF92EF92FF920F93CF93CFB72A
:10071000F89460916A0370916B0380916C039091DF
:100720006D032EE433E840E050E00E942E2E2901B4
:100730003A0100E20E94642E49015A01D301C2012C
:10074000B695A79597958795BC01CD01680D791D44
:100750008A1D9B1D97FF09C0DC01CB01BF77BC013F
:10076000CD016F5F7F4F8F4F9F4F60936A037093F0
:100770006B0380936C0390936D03CFBFCF910F9168
:10078000FF90EF90DF90CF90BF90AF909F908F90B1
:100790007F906F905F904F900895CF92DF92EF928D
:1007A000FF92CF93C82F6A017B010E94E90229E0E2
:1007B000C29FF0011124DF01A855BB4F6D937D93BB
:1007C0008D939C9313971496CD92DD92ED92FC92AB
:1007D0001797E055FB4F8081816082608083CF91C5
:1007E000FF90EF90DF90CF900C944502CF92DF9274
:1007F000EF92FF928091080290910902A0910A0263
:10080000B0910B02B695A79597958795809327038E
:1008100090932803A0932903B0932A030E9479039D
:10082000C0902703D0902803E0902903F0902A037A
:10083000A70196010E940C2EAB01BC014C0D5D1D61
:100840006E1D7F1D40932703509328036093290357
:1008500070932A031092D20B82E0FF90EF90DF900A
:10086000CF900C94CD032FB7F894809115029091FE
:1008700016022FBF08950F931F932FB7F89440913E
:1008800030045091310460913204709133048091AE
:10089000840090918500B09B08C04F5F5F4F6F4F01
:1008A0007F4F80918400909185002FBFBA0155271A
:1008B0004427A0E0B0E08A019B01082B192B2A2BCA
:1008C0003B2BC901B8011F910F91089540918400FD
:1008D000509185006FB7F894209184003091850085
:1008E0002D5F3F4FF901E41BF50BE817F90718F4EA
:1008F0009C01240F351F2115310511F421E030E052
:1009000021503109309389002093880082E086BB12
:1009100080916F00826080936F006FBF08950F9386
:100920001F93CF93DF938C018FB7F894C09149093F
:10093000D0914A099E012F5E3E4F30934A09209381
:1009400049098FBF8DE00E940B02CE01B8010E94C1
:10095000E42D8A5D9E4FDF91CF911F910F910895F5
:1009600090914802E92FF0E0EE0FFF1FEE54F44F94
:100970004081518120914602222359F09F5F9D3092
:1009800019F09093480202C010924802215020931F
:100990004602CA0108959FB7F89422B184E08227E5
:1009A00082B99FBF0895DC018091810240911F04AC
:1009B00090E055E0981769F1E92FE40FE370509645
:1009C0002C91509730E0322F222751966C915197FD
:1009D000262B5E9FF0011124E654FD4F608171814A
:1009E00026173707A1F452963C9152972281321371
:1009F0000EC01D963C911D972481321308C053965A
:100A00003C9153972381321302C0892F08959F5F31
:100A1000D1CF0895CF93DF93EC0180918102843090
:100A2000A1F5CE010E94D304837049F480911F0484
:100A300090E001968370992780931F0423C095E06E
:100A400020911F0430E0280F311DA9014370552764
:100A5000949FD001959FB00D1124A654BD4F2F5FD8
:100A60003F4F23703327929FF001939FF00D112485
:100A7000E654FD4F292F01900D922A95E1F78F5FE3
:100A80008430F1F683E080938102409181022091CD
:100A90001F04842F90E0820F911D8370992725E019
:100AA000289FF001299FF00D1124E654FD4F28895D
:100AB00030E0322F22278989282B318320838A89AD
:100AC00082838D8584838B8983834F5F40938102EA
:100AD000DF91CF910895AC019091EF039C30B8F471
:100AE00080916F03292F30E0280F311D2C30310504
:100AF00014F02C503109220F331FF901E25BF64F3D
:100B0000518340839F5F9093EF0380E0089581E0DD
:100B10000895AC019091EE039C30B8F48091750C6F
:100B2000292F30E0280F311D2C30310514F02C50C6
:100B30003109220F331FF901E151F14F51834083F5
:100B40009F5F9093EE0380E0089581E008952BE08D
:100B5000829FC0011124FC01E85CFB4F718360831C
:100B600012821382148285E0858316821086178292
:100B70000895BC01409192026F3F8FEF780721F0FA
:100B800026ED32E090E00DC0842F0895285F3F4F9E
:100B9000F90138970190F081E02DE617F70719F079
:100BA0009F5F9413F3CF892F0895E0E2F1E0692766
:100BB000660FF11DE60FF11DC895982F802D319617
:100BC000C895902508952091330290913E022111FD
:100BD0002FC081112DC081E0809333022091070244
:100BE00020933202292F217020939102209101023B
:100BF00030910202309331022093300220913D0265
:100C000020932F02292F21708227967EE82FF0E073
:100C1000EE0FFF1FED5FFD4F208131813093020207
:100C200020930102982B90933E028BE10C940B02CF
:100C300090FF02C09B7F01C09D7F90933E0208956C
:100C4000CF93DF93D82FC62F80913003813061F08E
:100C500028F0823099F0833019F1E2C0DD2309F4E5
:100C600025C10E94DE01ECC0D11120C16093ED0BC3
:100C70008CEB860F823008F0D3C0E4C0D111D0C015
:100C80006093630380913404909135040E94D505EC
:100C9000909335048093340483E08093300306C13D
:100CA00080914C098F3F09F4BBC0DD2309F454C087
:100CB000823008F4B5C0E091D30BEE2311F0E1507F
:100CC00001C0E2E0AE2FB0E0AD52B44F12962C91CD
:100CD00030E0322F2227EE2311F0E15001C0E2E094
:100CE000F0E0ED52F44F8281282B809134049091F2
:100CF00035042817390709F093C080E00E94E30506
:100D00008091ED0B8434A9F420916303E0912004D9
:100D10009091210481E08E0F863008F4BDC09923A4
:100D200041F0F0E0E05EFB4F2283109220040E942D
:100D30002A020E94DE0180912E028D7F80932E0276
:100D400080913F02882309F4B1C084E0809330038E
:100D5000DF91CF910C944003823008F44CC0E091B5
:100D6000D40BF0E0ED52F44F928180913E02282F97
:100D7000269526952695237030E02130310521F007
:100D80002230310579F01EC0877E806180933E025B
:100D9000992311F080E001C085E080933D0290939B
:100DA000070210C080913D028F3260F4E091010291
:100DB000F0910202E80FF11D908380913D028F5F58
:100DC00080933D028091D40BE82FF0E0ED52F44F78
:100DD00062818F5F833018F48093D40B02C010922D
:100DE000D40B80913404909135040E94D5059093E2
:100DF0003504809334048091D30BE82FF0E0ED525A
:100E0000F44FC2838F5F833018F48093D30B02C0FA
:100E10001092D30B80914C098F5F80934C0946C090
:100E20000E94DE0180912E028D7F80932E0281E050
:100E30000E94E30580913F02811187CFDD23B1F14C
:100E400081E02BCF80913404909135040E94D50528
:100E50009093350480933404C43411F482E001C0CB
:100E600083E08093300390913E0290FF04C092FD96
:100E7000D7CF946003C091FDD3CF926090933E0290
:100E800080913E02877E886080933E0210923D02F0
:100E90008FEF809307020AC0891709F44ACFF0E068
:100EA000E05EFB4F22838093200441CFDF91CF91FE
:100EB0000895BF92CF92DF92EF92FF920F931F930C
:100EC000CF93DF93E0912602F09127023196F093C1
:100ED0002702E09326029091CE02992391F1890195
:100EE0007A016B01B82E0E94AB02EC010C9649F11D
:100EF0004091680950E060E070E00E94892EBC8655
:100F0000CE86DD86E88AFF860A8B198B90912602B1
:100F1000809127029C8B8B8BCE010E94CA0281118B
:100F200004C00E943F0280E00DC080912402909195
:100F3000250201969093250280932402CE010E94FF
:100F4000660281E0DF91CF911F910F91FF90EF90AA
:100F5000DF90CF90BF900895019701960197E1F738
:100F600008953C9A449A41E150E060E070E081E0ED
:100F70000E94CD0380E00895CF93DF93DFB7F8940C
:100F8000C0914A02C11109C081E080934A021092C7
:100F90000E0280E10E940B0218C0809178038F3FFF
:100FA00099F4E0910F02EE2379F0809110028F3FC7
:100FB00019F41092100204C0F0E0E858FC4F1082BF
:100FC00010920F02C0E001C0C5E0DFBF8C2FDF919F
:100FD000CF910895FA012D3108F040C066837583E2
:100FE000838721878091390290913A02892BC1F53C
:100FF0008FB7F89495E09093370210923602509391
:101000003C0240933B0242E050E050933A0240934E
:1010100039021092340210923502245F2093380274
:101020008FBF8FB7F894909146099A3011F48FBF13
:1010300019C08FBF9FB7F89480918103811106C0BA
:1010400081E0809381031092820301C080E09FBF02
:10105000882341F00E942A0280E0089582E00895EA
:1010600085E0089510923A021092390281E00895C5
:10107000CF93DF93C82FD0E0CC0FDD1FCE50D44FDD
:1010800028813981232BF1F479836883FB0141871F
:10109000909100029230C0F0242F982F83856581B3
:1010A00070E0762F66273681632B90930002AF01A4
:1010B0000E94EA07882341F092E09093000219828F
:1010C000188203C085E001C080E0DF91CF910895D0
:1010D0008091420C882319F080E09FE102C088E0F3
:1010E00093E04FB7F8942091D0022E7F2093D00246
:1010F00020917C00322F3F712295269526952370F2
:1011000011F421E0931320E03091D00220FB31F95B
:101110009F71292F220F220F3378322B3093D00268
:1011200090937C002091D0022170883019F5809135
:10113000260C9091270C863831E0930780F4833C8D
:10114000910578F48136910570F48033910568F447
:101150008831910560F40C9760F480E00BC087E063
:1011600009C086E007C085E005C084E003C083E0D5
:1011700001C082E087708860806120FB85F980640F
:10118000806880937A004FBF089510925202209198
:101190002B02222349F190912D02E92FF0E0EE0F6E
:1011A000FF1FE759F64F408151819F5F9A3019F038
:1011B00090932D0202C010922D02215020932B02F9
:1011C0004115510511F40C9484028FE2FA01A6E452
:1011D000BCE001900D928A95E1F7CA010E948D0250
:1011E0008111F1CF0C940B020895CF93DF93DFB7F9
:1011F000F89480914B02823021F5C0911102C11107
:1012000020C0909113029F3FB1F0E92FF0E0EB5224
:10121000FD4F8081809313028F3F11F4809312025F
:101220008FEF80839093110281E080934B0289E0DD
:101230000E940B0204C09093110210924B02DFBF78
:1012400002C0DFBFC1E08C2FDF91CF910895CF9313
:10125000DF93DFB7F89480914A02823039F5C0916C
:101260000E02C11123C0909110029F3FB1F0E92FEF
:10127000F0E0E858FC4F8081809310028F3F11F41A
:1012800080930F028FEF808390930E0281E0809312
:101290004A0280E10E940B0204C090930E02109259
:1012A0004A028CB58F7B8CBDDFBF02C0DFBFC1E0BF
:1012B0008C2FDF91CF910895CF92DF92EF92FF9222
:1012C0000F931F93CF93CFB7F8942091B3009091D1
:1012D000B20087B3291711F081FF02C0CFBF7CC0D5
:1012E00080916403811102C086EE3FC00E94E90232
:1012F000C0908902D0908A02E0908B02F0908C021C
:101300000091760C1091770C2091780C3091790C2B
:10131000AB01BC014C195D096E097F0940175107EB
:101320006207730728F01092640386EE91E01EC0F6
:10133000D901C8018C0D9D1DAE1DBF1D40919502A8
:10134000509196026091970270919802841B950BC0
:10135000A60BB70B873E9105A105B10528F6823093
:101360009105A105B10508F482E090E02FEF280F68
:101370003091B60033FDFCCF3091B2002313822FA1
:101380004091950250919602609197027091980257
:101390008A019B010F5F1F4F2F4F3F4F080F111DF9
:1013A000211D311D041715072607370710F4842F58
:1013B00080952091B60023FDFCCF8093B300CFBF72
:1013C000992351F081E0CF911F910F91FF90EF9001
:1013D000DF90CF900C940B02CF911F910F91FF9053
:1013E000EF90DF90CF900895FC01218562853AE06F
:1013F000211104C0639FB001112409C0639FC00183
:101400001124622F70E00E94F82D11861286278128
:10141000308549E0429FC001439F900D1124860F03
:10142000971F6AE070E00E94E42D7087678308953B
:101430000F931F93CF93DF938C01EB010E947903ED
:10144000CB01B8010E94E42DAC014C0F5D1F60E0A0
:1014500070E084E0DF91CF911F910F910C94CD0348
:10146000CF93DF931F92CDB7DEB789830E94CA0165
:10147000898180688EBD80E00E94C3010E94BE0108
:1014800089830E94B30189810F90DF91CF910895E4
:101490001F93CF93DF931F92CDB7DEB7182F6983C9
:1014A0000E94CA01912F906C9EBD89810E94C30148
:1014B0000E94BE010F90DF91CF911F910C94B30158
:1014C0008CB58F7B8CBD229A2398219A209A8CB55B
:1014D00080618CBD8CB58F778CBD8CB5877F8CBDC2
:1014E0008CB58B7F8CBD8CB580648CBD8DB58160D7
:1014F0008DBD8CB58C7F8CBD0895CF938FB7F8943C
:1015000090910E02911106C090914A02923011F40E
:101510008FBF0FC08FBFCFB7F89480914A0281115F
:101520000AC082E080934A0210920E020E94600A72
:10153000CFBF81E004C0CFBF0E94BC0780E0CF9145
:101540000895CF93DF93FC01228130E0322F2227D0
:101550004181242B25FF15C027743C7C2134384859
:1015600081F4FC01C781D0E0DC2FCC278681C82B19
:101570000E94330421E0C817D90709F020E0822F28
:1015800001C080E0DF91CF910895DF92EF92FF924A
:101590000F931F93CF93DF93209126023091270260
:1015A0002F5F3F4F30932702209326029091CE0267
:1015B000992381F18A017B01D82E0E94AB02EC01B4
:1015C0000C9641F14091680950E060E070E00E94A3
:1015D000892EDC86EE86FD861F86098B188B9091FE
:1015E0002602809127029C8B8B8BCE010E94CA021F
:1015F000811104C00E943F0280E00DC0809124024E
:101600009091250201969093250280932402CE01A9
:101610000E94660281E0DF91CF911F910F91FF90B0
:10162000EF90DF9008951F93CF93DF9320912602D0
:10163000309127022F5F3F4F3093270220932602DD
:101640009091CE02992349F1182F0E94AB02EC0130
:101650000C9619F14091680950E060E070E00E943A
:10166000892E1C8790912602809127029C8B8B8B60
:10167000CE010E94CA02811104C00E943F0280E094
:101680000DC080912402909125020196909325022D
:1016900080932402CE010E94660281E0DF91CF9107
:1016A0001F9108950F931F93CF93DF93EB01FC01DC
:1016B0002281211127C090930A0D8093090D9FB7B5
:1016C000F89422B182E0822782B99FBF1092530220
:1016D0005F812E81988989896A8930E0352B44237E
:1016E00031F0482F50E0592B70E080E205C0482FC0
:1016F00050E0592B70E086E2DF91CF911F910F915E
:101700000C9459078C014423A9F0FC01808191813C
:101710000E940A052F8130E0322F22278E81282B4C
:10172000488950E0542F44278989482B6A8970E002
:1017300082E20FC02F8130E0322F22278E81282BAA
:10174000488950E0542F44278989482B6A8970E0E2
:1017500087E20E945907F801808191810E946B0500
:10176000882319F081E50E94130BC8010E948905A6
:10177000882339F082E5DF91CF911F910F910C946E
:10178000130BDF91CF911F910F9108954F925F92AC
:101790006F927F928F929F92AF92BF92CF92DF9281
:1017A000FF920F931F93CF93DF93A8EAB4E0C12C6D
:1017B000D12C49E04C9DF0014D9DF00D1124EF011D
:1017C000C855DB4FF884F1FE78C10D911D912D9124
:1017D0003C91139714968D909D90AD90BC90179767
:1017E0002B013C01401A510A620A730A4814590439
:1017F0006A047B0408F461C1F0FE06C0E055FB4FAB
:1018000020812D7F20830AC0B901A801480D591DF0
:101810006A1D7B1D488359836A837B8322E0C2163D
:1018200009F4E8C02C1528F081E0C81609F4ADC011
:1018300008C023E0C21609F42DC184E0C81609F4DB
:1018400034C180918002853009F074C080915302C8
:1018500081115BC082E09CE0892B21F08AE09CE052
:10186000892B19F40E94840231C182E1ECEDF3E08E
:10187000AAE0BCE001900D928A95E1F781E08093A7
:10188000FC0B1092FB0B8091490281FF3CC087E268
:101890008093F60B9091190280911A029093070C95
:1018A0008093060C80918F0291E0980F90938F02A5
:1018B0008093080C83E98093090C1092030CE0914B
:1018C000090DF0910A0D3097F1F086EF9BE09183BE
:1018D000808312828EE18383CF010E94902981113F
:1018E0000FC08091490282FF03C084FF0E943C0226
:1018F00010920A0D1092090D81E08093530205C0E9
:1019000081E10E94130B0E94CB041092800280910F
:10191000080D81110DC08091E20390E0982F882777
:101920002091E303822B01968093E3039093E203DB
:101930001092080D9FB7F89480915002811111C048
:1019400081E08093500210927D099FBF90914F02D9
:10195000911104C085E00E940B02B8C080934E0232
:10196000B5C080917D09811102C09FBFAFC0809139
:10197000A70480FD05C081608093A70480E001C0BA
:1019800085E09FBF81116ECFA1C04FB7F8948091C1
:101990005002882369F090911802913061F48150CF
:1019A00031E020E0823008F030E0832F922F05C034
:1019B00081E090E002C080E090E04FBF892B09F405
:1019C00085C0CFB7F89480911802813089F4809156
:1019D0005002813021F484E00E940B0209C0823061
:1019E00039F480917D098093180283E0809350023E
:1019F000CFBF6CC080914302882309F467C08091F7
:101A00004202882309F462C08091D20B811120C068
:101A10000E94420285E10E940B024091080250910F
:101A2000090260910A0270910B0280912703909144
:101A30002803A0912903B0912A03481B590B6A0B74
:101A40007B0B81E08093D20B82E00E94CD033EC0ED
:101A50008091080290910902A0910A02B0910B02B4
:101A6000880F991FAA1FBB1F813020ED920727E026
:101A7000A207B10520F080E090EDA7E0B0E08093F0
:101A8000080290930902A0930A02B0930B020E94ED
:101A9000F6031CC0809143028823C1F0809142026A
:101AA0008823A1F00E94420211C0809149028F7EDA
:101AB000809349020E943C0209C02FEFC21AD20A49
:101AC000199625E0C216D10409F074CEDF91CF91AA
:101AD0001F910F91FF90DF90CF90BF90AF909F909C
:101AE0008F907F906F905F904F900C9445020F9372
:101AF0001F93CF93DF93EC01E0914802F0E0EE0FEB
:101B0000FF1FEE54F44F008111816623B1F02F8145
:101B100030E0322F22278E81282B488950E0542F25
:101B200044278989482B6A8970E084E20E9459071A
:101B30006CE170E08CE190E03CC08091490283FF51
:101B40004DC08CA580FD4AC08F8190E0982F8827DA
:101B50002E81822B0E9452038F3F71F09BE0899F60
:101B6000F0011124E85CFB4F82858F5F828785300E
:101B700018F0CF010E94F4090E944202F80183810B
:101B8000815083838823D9F02F8130E0322F2227A0
:101B90008E81282B488950E0542F44278989482B6F
:101BA0006A8970E085E20E94590767E070E087E08B
:101BB00090E0DF91CF911F910F910C94180A0E9431
:101BC000B004809149028F7E8093490267E070E003
:101BD00087E090E00E94180A40E029C00E94B0040B
:101BE000809149028F7E8093490267E070E087E030
:101BF00090E00E94180A8F8190E0982F88272E810C
:101C0000822B0E9452038F3F89F09BE0899FF00155
:101C10001124E85CFB4F81858F5F818782858F5F10
:101C20008287853018F0CF010E94F40941E0BE019F
:101C3000C801DF91CF911F910F910C94520B8091AD
:101C40007C0390917D03892BC1F581E090E0909316
:101C5000E20B8093E10B89EB92E090937D038093FC
:101C60007C03109261031092600381E08093620311
:101C70008091C00080648093C0008091C100806426
:101C80008093C10080916003909161039C012F5F5C
:101C90003F4F3093610320936003FC01E754FD4FF5
:101CA00080819FB7F8948093C6008091C0008064C3
:101CB0008093C0009FBF80E0089585E0089593E879
:101CC000980F923050F490912E02916090932E02D2
:101CD00090E2892780934B098DE78093B9020C9499
:101CE0001F0E9FB7F89480912E028E7F80932E0254
:101CF0008EE78093B9029FBF0C941F0E2F923F92E4
:101D00004F925F926F927F92AF92BF92CF92DF928B
:101D1000EF92FF920F931F93CF93DF932091550281
:101D2000222311F015E0DEC010910D0D1530D1F712
:101D30002091D80B2111F6CFEC010E947D0A882357
:101D400089F38CA582FF03C06EA56F7001C060E0AF
:101D50008091B303681731F06093B303606885E046
:101D60000E94480A2A8130E0322F22278981282BBD
:101D700027743C7C21343848A1F486E00E94300A64
:101D80008F7190E040916E032091260330E0240F84
:101D9000311D43E0359527954A95E1F72817390716
:101DA00044F169E082E00E94480A0E943B042B0152
:101DB0003C016E01EFEFCE1ADE0A08818CA52EEFF2
:101DC000B22EB00E84FF09C09E012C193D098BEF85
:101DD000800FA82EA20EBA1802C0AB2CB12C81E045
:101DE0000E94300A8F71893039F066E082E00E94EB
:101DF000480A0E94270976C08FB7F8942F9AE0907E
:101E00008400F09085008FBF0E94B1010E94CA013A
:101E100080E68EBD802F0E94C30186013A2CF80116
:101E200081918F010E94C3013A943110F8CFAA9496
:101E30002A2D30E08601020F131F2F5F3F4F2C0D1C
:101E40003D1D1701F2EA2F0E311C24183508C1017F
:101E5000AA2797FDA095BA2F12012301280E391E3B
:101E60004A1E5B1EBB2041F1F8018181C280D12C4A
:101E7000E12CF12C7601DD24CC24F82A8481C82AB7
:101E80008381D82AD701C60182199309A409B5090B
:101E900084839383A283B183A22E3901F3018191BC
:101EA0003F010E94C301862D8A198B11F7CFF801DB
:101EB000C482D382E282F1820E94BE010E94B301F9
:101EC00066E082E00E94480A8CA582608CA728A662
:101ED00039A64AA65BA686E080930D0D84E0809328
:101EE000550210E0812FDF91CF911F910F91FF904C
:101EF000EF90DF90CF90BF90AF907F906F905F900A
:101F00004F903F902F9008953F924F925F926F9223
:101F10007F928F929F92AF92BF92CF92DF92EF9279
:101F2000FF920F931F93CF93DF9300D0CDB7DEB70F
:101F300014E030E8A32E05E043E0D42E59E0852ECE
:101F400062E0C62E78E0B72E87EE9EE0E5E09E2E9A
:101F5000980E80916405823009F07DC0109264056E
:101F600080917E03823009F459C0833009F461C046
:101F7000813009F070C0209184003091850060901C
:101F80002A0470902B04621A730A90912F039038E0
:101F900041F410922F0390912E03923009F05BC010
:101FA0003AC097FF04C0161417040CF4A8C3E090BD
:101FB0002B03F0902C03809193028111A0C3C701E1
:101FC0000E947E0E282F81119BC3D7019C968C9175
:101FD0009C978E7F9C968C9381E080939302F092E5
:101FE000EE0EE092ED0ED0922F0335C097FF9FC307
:101FF000161417040CF09BC3A0922F0381E080936A
:102000007E0380936405C30129830E9466042981AD
:1020100020937A0C81E080932E0308C010929302E3
:1020200010922F0310927A0C10932E030E944802F4
:1020300012C090910D0D923019F480930D0D09C0CE
:1020400080915502863029F41092550281E00E9459
:10205000300A0E941F158091D80B882309F4B3C061
:1020600080910D0D813009F4AEC00E947D0A882355
:1020700009F4A9C08FB7F89460907203709073034D
:102080008FBF1092D80B8FE00E94300AF82E8091FB
:1020900055028B7F833021F400930D0DB0925502D1
:1020A000F2FE4AC080915502863011F4109255021A
:1020B00080915502811140C0B4E0FB1234C086E02B
:1020C0000E94300A8F7190912603292F269526951C
:1020D000921B980F90932603E0918D02F0918E024F
:1020E00094A59B7F986094A786A70E943B049301C8
:1020F00027503109261B370B2901662457FC6094B1
:10210000762CE0918D02F0918E0224A5226024A706
:10211000AB01BC01440D551D661D771D40A751A79D
:1021200062A773A707C0E0918D02F0918E0284A58B
:10213000857F84A700935502F3FE45C08091550228
:10214000843081F500930D0D109255028091930219
:10215000833019F41092930236C0E091ED0EF091A5
:10216000EE0E828190E0982F88272181822B85FFB7
:102170000EC087749C7C8134984849F4878190E034
:10218000982F88272681822B019609F0D3C21092BE
:10219000930210922F0310927A0C10932E030E9438
:1021A000480211C0853079F486E00E94300A90918F
:1021B0006E038F71292F26952695921B980F909369
:1021C0006E038092550280915502882309F44DC216
:1021D000893009F0BCC10E94CA0180E28EBD0DB4F5
:1021E00007FEFDCF8EB51EBC0DB407FEFDCF8EB52C
:1021F0009DEF980F973208F07AC01EBCE0918D02D7
:10220000F0918E023F015FEF651A750A8083AEEF91
:102210005A2E580E86E0851510F0452C02C0F7E0C6
:102220004F2E7301342C40E050E080E049835A8304
:102230000E94C301D7018D937D01682F49815A8186
:10224000CA010E94CC01AC013A943110EECF2FEFBD
:10225000240D30E02F5F3F4F620E731EE0918D0220
:10226000F0918E0281818770823029F480919302EF
:102270008230D9F50BC09FB7F89481E02091CC0B48
:10228000233008F080E09FBF882379F1852D8419E1
:102290007301680E80E049835A836E1469F00E94CE
:1022A000C301F70181937F01682F49815A81CA01D7
:1022B0000E94CC01AC01EECF0E94C301682F49817E
:1022C0005A81CA010E94CC017C0180E00E94C301B6
:1022D000682FC7010E94CC017C010E94BE01E091E1
:1022E0008D02F0918E0285A705C00E94BE01EE24EA
:1022F000E394F12C0E94B30100930D0D109255024E
:10230000EF2809F0A9C140908D0250908E02D201B1
:1023100011968C911197877090919302823029F5D4
:10232000923009F00FC1E091ED0EF091EE0E139690
:102330009C918381981306C180916F008D7F80935B
:102340006F0010926405E091ED0EF091EE0E84A501
:10235000816084A71092930210922F0310927A0C3E
:1023600010932E030E944802EDC0911117C0C201C4
:102370000E94A10A882391F00093F003C092F10318
:102380001092F203F20183818093F30380EF93E0D4
:102390000E947E0E811102C0D0929302E0908400D0
:1023A000F0908500C2010E94A10A882321F0F4EE7A
:1023B000EF1AFCEFFF0AF0922B04E0922A048091BE
:1023C0008400909185009701281B390BC9011816CC
:1023D0001906ACF420912F0321110EC02091640541
:1023E00021110DC021E020937E03209364050E94FB
:1023F0006604A0922F0303C0206820932F03D2010C
:1024000019968C91199790E0982F882718962C91FF
:10241000822B20919902422F50E0FA01EE0FFF1F0C
:10242000ED51F44F60817181F0906505681779076F
:1024300011F4FA0110C0A3EEBBE0E7EEFEE020E0ED
:1024400030E070E060E04D915D914817590779F4F4
:1024500020939902F901E951F14F80818F1509F418
:102460003FC0F394F0926505F08260E822C041918C
:102470005F2D541B651710F4722F652F2F5F3F4F90
:102480002530310501F770939902272F30E0F901CB
:10249000EE0FFF1FED51F44F91838083F394F09280
:1024A0006505F901E951F14FF082F901E45FF04F60
:1024B000108280916505982F9F779F3719F02091A2
:1024C00099020EC06F37D8F3E7EEFEE0282F207890
:1024D00090819F679813208331969E12F9CFEFCF9A
:1024E000D20113969C91E22FF0E0DF01A45FB04F80
:1024F0008C91E353F44F80FF04C08081981303C094
:1025000021C081608C939083FFB6F8948091CC0BAE
:102510008330B8F4E0912D0CE80FE33008F0E3507D
:10252000F0E0EE0FFF1FED57FD4F7080E18051820C
:1025300040828F5F8093CC0B8CE00E940B02472C73
:102540005E2CFFBE50928E0240928D0285C09FEF9E
:10255000980F933008F06EC09EEF980F9230D8F528
:1025600020910D0D213099F49091640591110FC0C7
:1025700029830E94B101D0927E03298120936405B2
:102580008BE293E00E946604C0920D0D3EC0833042
:1025900011F5233001F50E947D0A8823E1F08FE0D8
:1025A0000E94300A8091810080648093810080E2E3
:1025B00086BB80916F00806280936F006091D10232
:1025C000606688E00E94480A66E082E00E94480A4D
:1025D00010930D0D1AC08091550281508230A8F4DD
:1025E00080910D0D853089F40E947D0A882369F061
:1025F00063E082E00E94480A80916F008F7D8093A3
:102600006F001092D80BD0920D0D80915502813041
:1026100041F490910D0D9330F9F42F9A80930D0DA4
:1026200006C08230C9F480910D0D8330A9F4B092B8
:10263000550212C0873081F40E947D0A882361F020
:102640006091D102606688E00E94480A80910D0D79
:10265000853069F710930D0D80915502883029F46B
:10266000109255028AE00E940B028091550281115E
:102670001DC080910D0D8530C9F48091D80B81115A
:1026800015C080919302811111C080912F03811197
:102690000DC080916405811109C080912E038230A4
:1026A00029F481E080932E030E9448028091550214
:1026B000811103C08EE00E940B028FB7F8949091B5
:1026C0004D099130B9F410924D098FBF0F900F90C2
:1026D000DF91CF911F910F91FF90EF90DF90CF90FE
:1026E000BF90AF909F908F907F906F905F904F9032
:1026F0003F90089591E090934D098FBF2ACC25E03B
:1027000090912F03892F8F77813009F06FCC9078CB
:10271000926090932F0380E198E00E948F0421E063
:1027200020937E03209364050E94660494CC10924B
:102730002F036ECC80916405811129CDC0927E0358
:1027400081E08093640589E993E00E946604C09269
:10275000930239CD9FB7F89480914D0981508093B1
:102760004D09803811F09FBF089581E080934D0995
:102770009FBF0C94840F0F931F93CF93DF931F92EF
:10278000CDB7DEB78C018FE3F801828790915402B8
:102790009F5F9093540293830E94B50180912E0312
:1027A00081110DC0109348090093470981E080937F
:1027B0002E03109212090E94480280E001C085E0B9
:1027C00089830E94AA1389810F90DF91CF911F9175
:1027D0000F910895FF920F931F93CF93DF93EA0118
:1027E0002D3108F068C0EA81F0E0FE2FEE279981D4
:1027F000E92BAF0147745C7C4134584839F0E073F1
:10280000FF27E164F868E98398E89A838B01F82E42
:10281000235F28830E943304888799879FB7F894A1
:10282000809114029FBF8C831D82FB860E831F83C1
:102830008FB7F89490914B0291110FC092E0909352
:102840004B02109211028FBFCE010E94BB13C82F02
:10285000882391F10E94F5082FC08FBFD093D30237
:10286000C093D202DFB7F894C0914B02C11109C0E6
:1028700081E080934B021092110289E00E940B02CA
:1028800018C08091D5028F3F99F4E0911202EE2397
:1028900079F0809113028F3F19F41092130204C053
:1028A000F0E0EB52FD4F108210921202C0E001C026
:1028B000C5E0DFBF01C0C6E08C2FDF91CF911F9133
:1028C0000F91FF9008950F931F93CF93DF93082FDD
:1028D000EB01142FE82FF0E0EE0FFF1FE45DFB4F3C
:1028E0001182108290910D029F5F917082E0492FBA
:1028F00050E0FA01EE0FFF1FE45DFB4F20813181B4
:10290000232B59F02091450C30E0092E02C035955B
:1029100027950A94E2F720FF08C04F5F5F4F942F7E
:1029200091708130E9F181E0E2CF90930D02E09166
:102930000D02E230F0F4F0E0EE0FFF1FE45DFB4F1C
:10294000A081B1812C912D5017966C91179770E052
:10295000F62FEE2716968C911697BF01682BAD01C6
:102960001B968C910E94EA13882319F083E10E9440
:102970000B02002319F0013049F016C0612FCE017F
:10298000DF91CF911F910F910C94770DC153D340DC
:1029900059F480914102882339F01092410204C019
:1029A00082E080930D02C3CFDF91CF911F910F91F1
:1029B0000895DC01462F80910D02823068F4E82FE3
:1029C000F0E0EE0FFF1FE45DFB4F608171816A173D
:1029D0007B0711F40C9463140895CF93DF93C82FF1
:1029E000D0E0CC0FDD1FC45DDB4F28813981232B64
:1029F00001F5798368839DE0940FFB0190839091AA
:102A00000D029230C0F0242F982F8385678170E0EB
:102A1000762F66273681632B90930D02AF010E94BB
:102A2000EA13882341F092E090930D0219821882F4
:102A300003C085E001C080E0DF91CF9108959FB78A
:102A4000F89480914D09882329F0806880934D097E
:102A50009FBF089581E080934D099FBF0C94840F20
:102A60000F931F93CF93E0912A02F0E0EE0FFF1F28
:102A7000EC54FC4F008111810115110519F0081764
:102A8000190751F080911C0290911D0201969093BC
:102A90001D0280931C021BC0C62F0E944B02C8015E
:102AA0000E946602C1110AC080911E0290911F020D
:102AB000019690931F0280931E0209C0809120020C
:102AC000909121020196909321028093200210920E
:102AD000430C80912802882329F0CF911F910F91F8
:102AE0000C943F02CF911F910F9108950F931F9364
:102AF000CF93DF93082FEB01142FE82FF0E0EE0FB8
:102B0000FF1FEE50F44F11821082909100029F5FE0
:102B1000917082E0492F50E0FA01EE0FFF1FEE5056
:102B2000F44F20813181232B59F02091740330E040
:102B3000092E02C0359527950A94E2F720FF08C0B8
:102B40004F5F5F4F942F9170813099F181E0E2CF18
:102B500090930002E0910002E230C8F4F0E0EE0F42
:102B6000FF1FEE50F44F0190F081E02D658170E081
:102B7000362F22278681B901682B2185AF018385F5
:102B80000E94EA07882319F08DE10E940B020023BE
:102B900051F0013091F4612FCE01DF91CF911F915F
:102BA0000F910C943015DF91CF911F910F910C94E0
:102BB000C50882E080930002CDCFDF91CF911F91B5
:102BC0000F9108952F923F924F925F926F927F9252
:102BD0008F929F92AF92BF92CF92DF92EF92FF922D
:102BE0000F931F93CF93DF9300D000D0CDB7DEB704
:102BF00090E08F31910510F00C942624FC01EA59E5
:102C0000FF4F0C94592E4091440C11E010934C0C42
:102C100010924B0C83E98093510C66E47CE080E0D9
:102C20000E9438088823C1F00F900F900F900F90EA
:102C3000DF91CF911F910F91FF90EF90DF90CF9098
:102C4000BF90AF909F908F907F906F905F904F90CC
:102C50003F902F900C94CB04109352020C94262496
:102C60008091CF02811141C04091EE0B5091EF0B4A
:102C70006091F00B7091F10B2FB7F894C090760C27
:102C8000D090770CE090780CF090790C80918902CC
:102C900090918A02A0918B02B0918C028C0D9D1DA7
:102CA000AE1DBF1D2FBF4093EE0B5093EF0B6093F3
:102CB000F00B7093F10B1092CF022FB7F89431E024
:102CC000309364038093890290938A02A0938B02CD
:102CD000B0938C024093760C5093770C6093780CF1
:102CE0007093790C2FBF0E945C090E94E90248C0D2
:102CF0000E94E9022FB7F894109264032FBFE8EA0C
:102D0000F4E010E044244A94542C642C5FE7752EC0
:102D100020E030E009E0029FA001039F500D112444
:102D200048555B4FDA0118964C9141FF1AC0C0809C
:102D3000D180E280F3804B015C018C189D08AE08C5
:102D4000BF08C480D580E680F780C818D908EA0893
:102D5000FB08C414D504E604F7041CF4260137016B
:102D600011E02F5F3F4F399625303105A1F6112331
:102D700011F40C9426241414150416041704C4F03A
:102D80000F900F900F900F90DF91CF911F910F91A7
:102D9000FF90EF90DF90CF90BF90AF909F908F907B
:102DA0007F906F905F904F903F902F900C94C60B48
:102DB0004092EE0B5092EF0B6092F00B7092F10B81
:102DC00021E02093CF023FB7F894209364036093EF
:102DD000890270938A0280938B0290938C024092B6
:102DE000760C5092770C6092780C7092790C3FBF01
:102DF0000F900F900F900F90DF91CF911F910F9137
:102E0000FF90EF90DF90CF90BF90AF909F908F900A
:102E10007F906F905F904F903F902F900C945C0943
:102E2000449880914E02813011F40E94B1078FB70F
:102E3000F89410924E0210924F0202C58FB7F89488
:102E400090917D099093180223E0209350028FBF48
:102E50008091180281110C9426249FB7F8948091D8
:102E60004C02811127C081E080934C0210926903CB
:102E70009FBF9FB7F89480917A00806880937A0012
:102E80009FBF1FB7F89480911702813081F4809121
:102E90004C02813021F487E00E940B0208C082308E
:102EA00031F4809169038093170220934C021FBF75
:102EB0000C94262480916903882311F40C9420211A
:102EC0008091940280FF02C00C9420218160809345
:102ED00094020C9420210F900F900F900F90DF918F
:102EE000CF911F910F91FF90EF90DF90CF90BF9007
:102EF000AF909F908F907F906F905F904F903F909A
:102F00002F900C94B10783E007C18FB7F89490918C
:102F100069039093170293E090934C028FBF8091C6
:102F2000170281110C94262481E08093B203109241
:102F3000420C0F900F900F900F90DF91CF911F9147
:102F40000F91FF90EF90DF90CF90BF90AF909F9048
:102F50008F907F906F905F904F903F902F900C9448
:102F600068081092B20300914409F09045098091DD
:102F7000420C81110C9426241FB7F89480914C02C6
:102F8000833009F03FC08091170281113BC08091CE
:102F90009402882311F40C94C72120914D0230E053
:102FA000C9010196A1E0B0E08130910511F480E003
:102FB00090E0E82FE695E695E695F0E0EC56FD4FBB
:102FC0004081582F5770BD0101C0660F5A95EAF72E
:102FD000542F562331F060954623408380934D0251
:102FE00006C08217930711F00196DECF8FEF809312
:102FF00069038FEF8093170281E080934C0287E092
:103000000E940B021FBF1FB7F894809150028330BB
:1030100099F48091180281110FC08091A704811149
:103020000C94D32181E08093180210925002809377
:103030004F0286E00E940B021FBFE0918002E53044
:1030400010F00C94262481E08E0F80938002F0E033
:10305000EE0FFF1FEC51FC4F0183F0820C942624ED
:103060008FB7F89492E090934B028FBF809111023A
:1030700081110C9426248091D2029091D3020E9457
:10308000BB13882311F40C9426248A830E94F5082C
:103090006A818091D2029091D302B8C080912E03B0
:1030A00010922E03853009F04FC081E080934302D7
:1030B0008091420281110E947903809149028460CB
:1030C000809349028091460281110E943C028FB791
:1030D000F894909146099A30E9F090913003943039
:1030E000C9F08FBF0F900F900F900F90DF91CF918D
:1030F0001F910F91FF90EF90DF90CF90BF90AF9016
:103100009F908F907F906F905F904F903F902F9007
:103110000C9484028FBF87E10F900F900F900F9057
:10312000DF91CF911F910F91FF90EF90DF90CF90A3
:10313000BF90AF909F908F907F906F905F904F90D7
:103140003F902F900C940B02863031F41092430282
:10315000809149028B7F81C4873011F40C9426241E
:1031600080932E030C9426240E94B50100912E0317
:10317000013091F5809112098F5F8093120986309A
:1031800058F5809147099091480920912F0321110A
:1031900015C010916405111111C090932C038093F8
:1031A0002B0300932F038BED91E10E948F0400937A
:1031B0007E03009364050E94660401C015E010932D
:1031C0007A0C111104C083E080932E0308C082E0C2
:1031D00080932E0310E003C010922E0311E00E9492
:1031E000AA13112311F40C94262460917A0C0091F7
:1031F000470910914809F80182858F3311F00C942A
:1032000026246A830E94F5086A81C8010F900F90F6
:103210000F900F90DF91CF911F910F91FF90EF9042
:10322000DF90CF90BF90AF909F908F907F906F90E6
:103230005F904F903F902F900C94D91422242394A8
:1032400020E8822E912CA12CB12C3BE0332E8FB79D
:10325000F8949091CC0B992309F4F2C2E0912D0CD3
:10326000F0E0EE0FFF1FED57FD4F208131813C83D1
:103270002B838FBFD9010C918EEF800F893008F41A
:10328000A4C21A968C911A978F3309F06BC285EFFE
:10329000800F823008F499C21B961C911B971796D9
:1032A000EC901797F12CFE2CEE2416968C91E82AC0
:1032B000BFEFEB16FB0659F4EB81FC8194812FB72D
:1032C000F894809114022FBF981741F0E9C10E9431
:1032D0003304E816F90609F0E3C1EECF103721F008
:1032E000113709F471C171C2AB81BC8117968C9101
:1032F000179790E0982F882716962C91822B01968D
:1033000009F046C0EB81FC81018510E0102F0027F9
:103310008085082BC8010E9452038F3F29F0AB81A2
:10332000BC811D966C911EC0EDE3EE2EE4E0FE2EF6
:10333000F701C12CD12C808180FD17C0B8018C2DE4
:103340000E94A705EB81FC8185853C9CF0013D9C9A
:10335000F00D1124E85CFB4F8283AB81BC811D968C
:103360006C918C2D0E94AF2913C0BFEFCB1ADB0AE2
:103370003B962AE0C216D104F1F60C940822AB81E8
:10338000BC819D968C919D97893C10F00C941D22D8
:10339000AB81BC818C918D501C969C911C979F7029
:1033A000292F220F920F891B9EEF980F8D3160F409
:1033B0006D01BCE0CB0ED11CC114D104E9F09530F5
:1033C00009F003C20C941424953009F0FEC1EB817E
:1033D000FC81018510E0102F00278085082B6F01EC
:1033E000FCE0CF0ED11CE12CF12CC114D104A1F0D2
:1033F000EB81FC813E9612C0953009F0E6C1AB81AD
:10340000BC8119960C91199710E0102F002718967F
:103410008C91082BE12CF12CE0E0F0E02081298355
:10342000D70111968C91119790E0982F88271296CA
:103430002C91822B019609F4B1C0F701838190E0B1
:10344000982F88272481822B892B91F5C8010E940F
:1034500052038F3F01F5EDE3F4E080E0908190FDB1
:1034600002C0B80116C08F5F3B968A30B9F78AE078
:103470000E94B328782EEFEF8E1769F0379CF00189
:103480001124E85CFB4F808191810E94D428B8010F
:10349000872D0E94A705C8010E9452038F3F41F06B
:1034A000389EF0011124E85CFB4F8581886085839C
:1034B000D70113964C901397512C542C44241496F6
:1034C0008C911497482A11966C901197712C762C38
:1034D000662412968C91682AC8010E9466037C01BA
:1034E000C8010E94B9058A3081F190919202891336
:1034F0001FC0B2E3EB16F10440F5E8E08E9FD00167
:103500001124AA52BD4F11961C930E9313967C92D0
:103510006E92129715965C924E92149716962C9274
:10352000169717961C92E1E0E80FE09392020DC007
:1035300028E0829FF0011124EA52FD4F118300839D
:103540007382628255824482268280910C028111AC
:1035500025C0FF24F394398136FFF12CC8010E9465
:10356000B90590919202891738F458E0859FF001CF
:103570001124EA52FD4FF7828091DE0B882329F057
:10358000F11003C00E94420209C08091D90B9091B2
:10359000DA0B8017910711F4F110F4CFCD2821F048
:1035A000EB81FC813E9602C0E0E0F0E0808187FF85
:1035B0000CC18092080290920902A0920A02B09275
:1035C0000B020E94F60301C1AB81BC8153961C9192
:1035D00053971D962C911D972F5F1D962C931D9729
:1035E00030E050964C91509750E0542F442751961C
:1035F0008C915197482B52966C9170E081E20E9419
:1036000059070D500D3108F0E0C08B819C810E945C
:10361000D30490918102891710F488E2D4C04091BC
:103620004602442309F4A9C750914802EB81FC816A
:10363000808990E0982F88272189822B4150E42FA0
:10364000E50FED3008F0ED50F0E0EE0FFF1FEE5407
:10365000F44F0190F081E02D0190F081E02D208960
:1036600030E0322F22276189262B28173907A9F449
:103670003289AB81BC8152962C91529732130DC086
:1036800035851D962C911D97321307C033895396AB
:103690002C91321711F40C9423244111CFCF6DC714
:1036A000113709F092C0EB81FC81848587FF0AC045
:1036B0008092080290920902A0920A02B0920B0234
:1036C0000E94F603AB81BC8153968C91539783394A
:1036D00009F07BC09FB7F89482B1822582B99FBF61
:1036E00054968C91549790E0982F882755962C915A
:1036F0005597822B2091DC0330E0322F2227409116
:10370000DD03242B2817390798F48093DD03909369
:10371000DC0356968C91569790E0982F8827579601
:103720002C91822B8093DF039093DE030E940A0387
:10373000EB81FC81828D90E0982F8827238D822B4E
:103740002091E20330E0322F22274091E303242B23
:1037500028173907D0F58093E3039093E203209272
:10376000080D33C0AB81BC8117960C91179710E000
:10377000102F002716968C91082B0E9433040817EF
:10378000190719F00F3F1F4F01F58FB7F8948FBF3E
:103790001CC08091750CE82FF0E0EE0FFF1FE15187
:1037A000F14FE080F1801182108221502093EE03CE
:1037B0008F5F8C3009F040C71092750CE114F10452
:1037C00009F03DC783E50E94130B8B819C813FB7B5
:1037D000F89420912D0CE22FF0E0EE0FFF1FED5733
:1037E000FD4F8083918381E0820F833018F48093B2
:1037F0002D0C02C010922D0C8091CC0B8150809327
:10380000CC0B3FBF24CD0E9479032FB7F89470935F
:103810004A09609349092FBF0C9426248FB7F89466
:10382000109234051092330510920C0D10920B0D6E
:1038300010925702109256021092290410922804F6
:103840008FBF0C9426241FB7F89482E080934A021D
:103850000E94600A1FBF80910E0281110C942624E1
:1038600080910D0D811149C08EEF91E00E94AC074F
:1038700016980E94B10186E090E00E94AC07169A6B
:1038800060E083E00E94480A68E082E00E94480A03
:103890008EEF91E00E94AC076DE48EE00E94480A32
:1038A00067EC89E00E94480A60E885E00E94480AC7
:1038B0001092B3038AE18093D1026AE788E00E9404
:1038C000480A2F9A81E080930D0D0F900F900F9072
:1038D0000F90DF91CF911F910F91FF90EF90DF90AC
:1038E000CF90BF90AF909F908F907F906F905F90A0
:1038F0004F903F902F900C9427090F900F900F90AE
:103900000F90DF91CF911F910F91FF90EF90DF907B
:10391000CF90BF90AF909F908F907F906F905F906F
:103920004F903F902F900C941F15C0904902C4FCFB
:1039300004C080914602811102C080E525C0B0908C
:1039400082020091D90B1091DA0BB11004C00F3F25
:10395000EFEF1E0789F00F3FFFEF1F0769F021E02F
:10396000B21651F1E090DB0BF090DC0BC8010E9425
:103970006603E80EF91E22C040E157E260E070E005
:1039800084E00E94CD0382E10F900F900F900F9082
:10399000DF91CF911F910F91FF90EF90DF90CF902B
:1039A000BF90AF909F908F907F906F905F904F905F
:1039B0003F902F900C94130BE12CF12CE0914802D6
:1039C000F0E0EE0FFF1FEE54F44F60807180F301C2
:1039D00080809180D401DC90C4010E94D304909136
:1039E0008102891708F4A0C6B110CDC6D4011F9674
:1039F000EC921F971E96FC92D301ED91FC911197CA
:103A000084858F738487ED91FC91119721812062C9
:103A1000828130E0382B218332838C2D8860809323
:103A20004902C0FE08C0ED91FC9194859064948792
:103A30008E7F80934902D301ED91FC910683178319
:103A400081E7838743EF4D0DBF0180E00E94ED14B5
:103A50008111DDC680914902806180934902F6C6DA
:103A60008091450C882309F4F1C60CE214E040E093
:103A7000FF24F3949091450C8F2D8923F1F0F801E8
:103A800020813181118210828F2D8095982390930F
:103A9000450C442319F0413041F00FC063E0C901E7
:103AA0004A830E94770D4A8108C02153334029F48C
:103AB00080914102811110924102FF0C4F5F0E5F15
:103AC0001F4F4830B9F6C2C680910D02E82FF0E0D2
:103AD000EE0FFF1FE45DFB4F6081718141E00F90AD
:103AE0000F900F900F90DF91CF911F910F91FF904A
:103AF000EF90DF90CF90BF90AF909F908F907F908E
:103B00006F905F904F903F902F900C946314809132
:103B1000820281119BC620909202409066095090CB
:103B200067098090D90B9090DA0BB6EDEB2EB2E0DE
:103B3000FB2E1DEDA12E12E0B12ECC24CA94DC2C5C
:103B40000FEF1FEF1C821B82312C3214D9F1D701E9
:103B500012968D919C9113978F3FBFEF9B0751F168
:103B60008415950539F1F70160807180C3010E94C9
:103B70006603D70114964D915C9115979C01240F13
:103B8000351F6814790451F45093DC0B4093DB0B20
:103B9000F50180818093DE0B69010CC0D5014C9149
:103BA000411108C0C29730F42017310718F4890179
:103BB000FC82EB823394B8E0EB0EF11CE8E0AE0E31
:103BC000B11CC3CF0F3FFFEF1F0709F4CAC02FEF8F
:103BD000C216D20691F08091DE0B882341F08091CD
:103BE000DB0B9091DC0B0A960817190730F0C8011F
:103BF0000F968C159D0508F0B4C08091280C90910B
:103C0000290CA0912A0CB0912B0C0196A11DB11D7D
:103C10008093280C9093290CA0932A0CB0932B0C22
:103C2000AB81BC811496AC9014971596BC901597F7
:103C30008C9011969C90809126029091270201967B
:103C400090932702809326028091CE02882379F1F7
:103C50000E94AB027C010C9651F14091680950E042
:103C600060E070E00E94892E81E3F70184878686F8
:103C70009586A08AB786028B118B9091260280913F
:103C80002702948B838BC7010E94CA02811103C053
:103C90000E943F020CC0809124029091250201965F
:103CA0009093250280932402C7010E9466028091AE
:103CB000D90B9091DA0B0E9452038F3F49F02BE011
:103CC000829FF0011124E85CFB4F8581877F85830B
:103CD000AB81BC818D919C910E9452038F3F49F032
:103CE000BBE08B9FF0011124E85CFB4F858188606D
:103CF0008583EB81FC81808191810E9452038F3FFB
:103D000041F02BE0829FF0011124E85CFB4F12860A
:103D10001186AB81BC818D919C9111979093DA0BA8
:103D20008093D90B14968D919C9115979093DC0BF1
:103D30008093DB0B17968C918093DE0BC601801B62
:103D4000910B459770F080E890E0A0E0B0E08093A0
:103D5000080290930902A0930A02B0930B020E94FA
:103D6000F60380914002811108C0CD20C09429F44F
:103D70000F3F1F4F11F00E943C021092400266C597
:103D800080914102811162C5E0917603F091770341
:103D900010829091D90B8091DA0BE0917603F0912B
:103DA00077039283818380918202E0907603F09082
:103DB0007703882359F09091DB0B8091DC0BD701BE
:103DC00014969C93149713968C9321C08091D90BD1
:103DD0009091DA0B8F3FBFEF9B0759F49091DB0B6B
:103DE0008091DC0BF70194838383808180688083DA
:103DF0000EC00091DB0B1091DC0B0E946603800F5C
:103E0000911FD70114968C93149713969C93E0916D
:103E10007603F0917703438150E0542F4427848147
:103E2000482B618170E0762F66278281682B83E3BF
:103E30000E94C50A8DE393E0892B19F08FE393E08C
:103E400002C08DE393E020E030E0F12C40E00AE096
:103E500010E05BE0E52E6C01B5E0CB0ED11C80914B
:103E60004402F901E80FF11DCF010196B8010E944B
:103E7000F82DBC01E89ED001E99EB00D1124A85C8C
:103E8000BB4F15969C9115979370933089F4F62E3D
:103E90009C9111968C911197F60153E0459FE00D8E
:103EA000F11D11249183808316968C9182834F5F3C
:103EB0002930310529F5F09244028091450291E0C4
:103EC000980F9093450280933E03842F8F708093C8
:103ED0003D038FEF809337038093380380E780930F
:103EE0003C03842F880F480F495F61E373E081E052
:103EF0000E94ED1481110AC081E080934102A6C4A2
:103F00002F5F3F4F473008F4AACFD5CF843009F058
:103F10009DC4109243029AC42FB7F8941092100DCA
:103F20008091460998EF980F923050F4109246090C
:103F3000E091A604F0E0EE0FFF1FE158FC4F108265
:103F40002FBF923018F53FB7F89490912C0C9F5FDB
:103F500090932C0C90917903933489F480912104EF
:103F600090912004981741F08F5F863018F4809369
:103F7000210402C01092210480E020E005C021E06D
:103F8000883009F420E081E03FBF04C081114AC4B9
:103F900020E080E03FB7F89490913F023FBF992323
:103FA00039F09FB7F8943AE0309346099FBF3FC07D
:103FB0004FB7F89430917F03909181034FBF6FB753
:103FC000F89450912004409121046FBF541709F1D7
:103FD00031111FC03FB7F89492E090937F035FB711
:103FE000F89440912004909121045FBF491739F063
:103FF000E0912104F0E0E05EFB4F928101C090E08F
:104000009093800393E4909379031092A6043FBFAA
:104010000CC09150923058F49FB7F89435E4309327
:10402000790331E03093A6049FBF11E001C010E096
:10403000882341F08FB7F894209336028FBF8AE12E
:104040000E940B020FB7F894809146098A3021F440
:104050000E9440030FBFFAC30FBF112309F4F6C338
:104060008FB7F8941092080F1092070F10927503F3
:1040700091E0909346098FBF0E94710E882309F446
:10408000E5C38FB7F89499E0909346098FBF0F90DE
:104090000F900F900F90DF91CF911F910F91FF9094
:1040A000EF90DF90CF90BF90AF909F908F907F90D8
:1040B0006F905F904F903F902F900C942A028091C8
:1040C000C1008F7B8093C1008091C1008F77809366
:1040D000C10010921309109262038091C1008860A0
:1040E0008093C1008091C10080618093C100809164
:1040F000C10080688093C1008FB7F8941092460980
:10410000109230038FBF8091E00390E0982F8827B2
:104110002091E103822B64EF71E00E94E42D892B52
:1041200011F58091D90B9091DA0B21E02093820256
:1041300020916609309167093093DA0B2093D90BEF
:104140001092DC0B1092DB0B019611F40E943C02E2
:104150004091DB0B5091DC0B6091D90B7091DA0B25
:1041600081E30E94C50A0F900F900F900F90DF918E
:10417000CF911F910F91FF90EF90DF90CF90BF9064
:10418000AF909F908F907F906F905F904F903F90F7
:104190002F900C940A0389E10C948C188091C10033
:1041A000877F8093C1008091C1008F7E8093C10082
:1041B0004DC310923A02109239028FB7F894409191
:1041C00036028FBF80913502811143E020913B027E
:1041D00030913C0280913402811138C380910002F9
:1041E000823008F033C3E82FF0E0EE0FFF1FEE50EF
:1041F000F44F608171816217730709F027C35BC0B8
:104200009FB7F89420913002309131028091910251
:104210009FBF9FB7F894E82FF0E0EE0FFF1FED5F10
:10422000FD4F31832083882321F080913E028B7FD4
:1042300003C080913E028D7F80933E021092330234
:104240009FBF04C380917403882309F4FFC202EF67
:104250001BE0F12CEE24E394909174038E2D8923BE
:10426000B9F0D8012D913C9111971D921C928E2D81
:104270008095982390937403FF2041F0B1E0FB12E6
:1042800007C063E0C9010E94301502C00E94C50842
:10429000EE0CF3940E5F1F4FE8E0FE12DDCFD6C2A6
:1042A00080910002E82FF0E0EE0FFF1FEE50F44F78
:1042B0006081718141E00F900F900F900F90DF911E
:1042C000CF911F910F91FF90EF90DF90CF90BF9013
:1042D000AF909F908F907F906F905F904F903F90A6
:1042E0002F900C9476158091430C8111AFC2809170
:1042F0002802882309F4AAC2E0912A02F0E0EE0F16
:10430000FF1FEC54FC4F00811181409168098FEF31
:10431000D80116968C93169715968C93159782E76D
:104320001B968C93B80181E00E943808811104C06B
:1043300081E08093430C8AC28091220290912302F3
:10434000019690932302809322020E944B02C8019F
:104350000E94660280912802882309F477C20F9098
:104360000F900F900F90DF91CF911F910F91FF90C1
:10437000EF90DF90CF90BF90AF909F908F907F9005
:104380006F905F904F903F902F900C943F0281E090
:104390008093170210924C0280917A008F7780935D
:1043A0007A000C9402186091510270E0CB010196E2
:1043B000A1E0B0E08130910511F480E090E0E82FB9
:1043C000E695E695E695F0E0E955FB4F2081382F1C
:1043D0003770AD0101C0440F3A95EAF7322F34230C
:1043E00031F04095242320838093510206C0861724
:1043F000970711F00196DECF8FEF80937D098FEF45
:104400008093180281E08093500284E00C941A1883
:1044100081E40E94B328D82EBFEF8B1711F40C94BF
:10442000BF193D9CF0011124E85CFB4F8081918114
:104430000E94D428B8018D2D8FC08C918D501C9670
:104440009C911C979F70292F220F920F891B8D31F1
:1044500038F4A43FEFEFBE0719F0FD013E9602C00D
:10446000E0E0F0E0AB81BC811B969C91903711F0AD
:104470000C94C819873011F00C94C819818190E010
:10448000982F88272281822B019611F40C94C81949
:10449000838190E0982F88272481822B009731F127
:1044A0006091920270E0A091D90BB091DA0BE6ED29
:1044B000F2E020E030E0D12C261737079CF4D11031
:1044C00015C0408151814A175B0741F0DD24D39428
:1044D000448155818417950708F0D12C2F5F3F4FF9
:1044E0003896EACFDD2011F40C94C81980E090E0F2
:1044F000D12CFC01E85CFB4F258120FF03C02A7012
:1045000009F4D3940B968E36910599F7DD2011F4BA
:104510000C94C8190E9479032D2D30E0CB01B9010C
:104520000E94E42DC12CD12CF70190819923C9F070
:104530009A70B9F49FEF980F811112C03C9CC00192
:104540003D9C900D1124FC01E85CFB4F8081918122
:104550000E94D428B8018C2D0E94A7050C94C8197C
:10456000892FFFEFCF1ADF0A2BE0E20EF11C3AE0B1
:10457000C316D104C9F60C94C8198091820288230D
:10458000F1F08B819C810E940A05EB81FC814081C6
:1045900083EF840F8D3140F4E43F2FEFF20721F0D9
:1045A000BF016C5E7F4F02C060E070E0133909F01C
:1045B0000CC945518B819C810E941B2908C990918F
:1045C000EF03911102C080E133C02091EE0321116D
:1045D000E0C886E12DC0D801EFE21D92EA95E9F727
:1045E000EB81FC81B896DF0127E01D922A95E9F75F
:1045F000EB81FC81D7011196FC93EE93FFEF1296AD
:10460000FC9312972EE113962C93C7010E949029D8
:10461000882389F1C8010E946B05882319F081E580
:104620000E94130BC7010E948905882319F082E5B7
:104630000E94130B81E1C7C88093750CBFC880919D
:104640006F03E82FF0E0EE0FFF1FE25BF64F0081F3
:1046500011811182108291509093EF038F5F8093AC
:104660006F038C3011F410926F030115110509F0DE
:10467000B2CF84E5A8C88091D90B9091DA0B8F3F17
:104680003FEF930709F449C020918202213049F09D
:10469000E090DB0BF090DC0B0E9466038E0D9F1DFB
:1046A00002C080E090E0AB81BC811E962C911E97E9
:1046B00030E0322F22271F964C91242B821793072C
:1046C00060F18092080290920902A0920A02B092D0
:1046D0000B020E94F6036CE170E08CE190E00E9416
:1046E000180AAB81BC8117962C91179730E0322FB6
:1046F000222716968C911697282B50964C915097FE
:1047000050E0542F442751968C915197482B529644
:104710006C9170E088E10E9459078091D40481FF78
:104720000E943C02C80153C88AE20E94130B0E94F7
:10473000B004D3018D919C910E946B05882319F0E0
:1047400081E50E94130BC3010E948905882319F09B
:1047500082E50E94130B0F900F900F900F90DF9146
:10476000CF911F910F91FF90EF90DF90CF90BF906E
:10477000AF909F908F907F906F905F904F903F9001
:104780002F900C943C02F4012389A0917A03B091FC
:104790007B039FE201900D929A95E1F780917A0355
:1047A00090917B03DC014C9133EF340F3D3140F4A9
:1047B000843FBFEF9B0721F0BC016C5E7F4F02C0BE
:1047C00060E070E0233919F445510E941B29909351
:1047D0007B0380937A0360E0F301808191810F90E5
:1047E0000F900F900F90DF91CF911F910F91FF903D
:1047F000EF90DF90CF90BF90AF909F908F907F9081
:104800006F905F904F903F902F900C94770D823077
:10481000E9F4D301ED91FC9189E280830E943C028E
:1048200087E1B2C810E00ECCEB80FC80BEE0EB0E5E
:10483000F11CEB81FC81018510E0102F00278085A1
:10484000082B0C94F81989E20C94E31B0F900F903D
:104850000F900F90DF91CF911F910F91FF90EF90EC
:10486000DF90CF90BF90AF909F908F907F906F9090
:104870005F904F903F902F9008958FB7F8940895D0
:104880008FBF08951F920F920FB60F9211240BB68F
:104890000F920F931F932F933F934F935F936F93B9
:1048A0007F938F939F93AF93BF93EF93FF930E9458
:1048B00002028091B30090E00196409195025091E0
:1048C000960260919702709198028A019B01080FED
:1048D000191F211D311D00939502109396022093FC
:1048E00097023093980278940E945C09FF91EF91AF
:1048F000BF91AF919F918F917F916F915F914F91F8
:104900003F912F911F910F910F900BBE0F900FBEF3
:104910000F901F9018951F920F920FB60F921124AF
:104920000BB60F922F933F934F935F936F937F93A9
:104930008F939F93AF93BF93EF93FF930E940202D5
:10494000FF91EF91BF91AF919F918F917F916F9167
:104950005F914F913F912F910F900BBE0F900FBE23
:104960000F901F9018951F920F920FB60F9211245F
:104970000F900FBE0F901F9018951F920F920FB6B9
:104980000F9211240F900FBE0F901F9018951F9239
:104990000F920FB60F9211240F900FBE0F901F9021
:1049A00018951F920F920FB60F9211240F900FBE01
:1049B0000F901F9018951F920F920FB60F9211240F
:1049C0000F900FBE0F901F9018951F920F920FB669
:1049D0000F9211240F900FBE0F901F9018951F92E9
:1049E0000F920FB60F9211240F900FBE0F901F90D1
:1049F00018951F920F920FB60F9211240F900FBEB1
:104A00000F901F9018951F920F920FB60F921124BE
:104A10000BB60F922F933F934F935F936F937F93B8
:104A20008F939F93AF93BF93EF93FF932091780061
:104A30003091790078944FB7F8948091D00281FB3F
:104A4000992790F981704FBF811122C080917A001F
:104A5000877F80937A008091B203813019F0823091
:104A600091F034C0911107C08DE790E00E94AC072F
:104A70000E9468082BC0309345092093440988E0C0
:104A80000E940B0223C0992379F31092B2031EC037
:104A90008FB7F8948FBF2FB7F89480917A0086FB78
:104AA000992790F9877F806190FB86F98F778093B3
:104AB0007A00877F80618F7B8F7780937A00877FF2
:104AC00080618F7B806880937A002FBFFF91EF9188
:104AD000BF91AF919F918F917F916F915F914F9116
:104AE0003F912F910F900BBE0F900FBE0F901F9014
:104AF00018951F920F920FB60F9211240BB60F92BA
:104B00002F933F934F935F936F937F938F939F93D5
:104B1000AF93BF93EF93FF932EB5E0913305F091E0
:104B20003405309739F08091280490912904E80FDA
:104B3000F91F208380912804909129040196909375
:104B40002904809328048CB58F778CBD809128042C
:104B50009091290460915602709157028617970729
:104B600008F03FC020910B0D30910C0DE091330502
:104B7000F0913405AC01465F5F4F6417750708F488
:104B8000AB014150510984179507C8F4211531052F
:104B900049F0D901A80FB91F6C916EBD0DB407FE85
:104BA000FDCF04C01EBC0DB407FEFDCF6EB530971F
:104BB00021F0DF01A80FB91F6C930196E4CF4CB52B
:104BC00040684CBD2115310531F0F901E80FF91F9E
:104BD00020812EBD01C01EBC90932904809328041F
:104BE00011C0109234051092330510920C0D1092E2
:104BF0000B0D109257021092560210922904109237
:104C000028048EB5FF91EF91BF91AF919F918F9145
:104C10007F916F915F914F913F912F910F900BBEBC
:104C20000F900FBE0F901F90189578941F920F92BF
:104C30000FB60F9211240BB60F922F933F934F9301
:104C40005F936F937F938F939F93AF93BF93EF93F4
:104C5000FF9380916F008D7F80936F0078948FB762
:104C6000F89490916405913019F492E09093640562
:104C70008FBF0E941F15FF91EF91BF91AF919F9140
:104C80008F917F916F915F914F913F912F910F90F5
:104C90000BBE0F900FBE0F901F90189578941F9227
:104CA0000F920FB60F9211240F900FBE0F901F900E
:104CB000189578941F920F920FB60F9211240F90AF
:104CC0000FBE0F901F90189578941F920F920FB6F9
:104CD0000F9211240BB60F922F933F934F935F9334
:104CE0006F937F938F939F93AF93BF93EF93FF93B4
:104CF000E6E8F0E080819181208131818FB7F894DE
:104D0000309373032093720391E09093D80B8FBF7D
:104D10000E941F15FF91EF91BF91AF919F918F91CD
:104D20007F916F915F914F913F912F910F900BBEAB
:104D30000F900FBE0F901F90189578941F920F92AE
:104D40000FB60F9211242F938F939F93AF93BF931E
:104D50002FB7F8948091300490913104A0913204DF
:104D6000B09133040196A11DB11D8093300490933E
:104D70003104A0933204B09333042FBFBF91AF919D
:104D80009F918F912F910F900FBE0F901F901895AC
:104D90001F920F920FB60F9211240BB60F922F9302
:104DA0003F934F935F936F937F938F939F93AF93B3
:104DB000BF93EF93FF938091C00087FF4AC060913B
:104DC000C60020913604309137042115310551F188
:104DD00080910E0D90910F0DAC014F5F5F4F50937E
:104DE0000F0D40930E0DF901E80FF91F608320911C
:104DF0000E0D30910F0D80910A0F90910B0F281717
:104E0000390738F110923704109236048091130953
:104E10008330F9F08091C1008F778093C1001092A8
:104E2000130917C06E3719F460E081E010C080915B
:104E30002E026D3721F4826080932E020AC081FF1A
:104E400005C08D7F80932E0280E2682780E00E945B
:104E50002006FF91EF91BF91AF919F918F917F912C
:104E60006F915F914F913F912F910F900BBE0F90DB
:104E70000FBE0F901F90189578941F920F920FB647
:104E80000F9211240BB60F92EF92FF920F931F9384
:104E90002F933F934F935F936F937F938F939F9342
:104EA000AF93BF93CF93DF93EF93FF938091600312
:104EB000909161032091E10B3091E20B82179307EF
:104EC000D0F420917C0330917D03AC014F5F5F4FA4
:104ED0005093610340936003F901E80FF91F80814B
:104EE0009FB7F8948093C6008091C000806480933F
:104EF000C0009FBFB2C010927D0310927C0310923D
:104F000062038091C1008F7B8093C1000FB7F8943A
:104F100080912E02982F9170F92E80FF0AC08E7F0B
:104F200080932E0280914B098093B9020E941F0E3C
:104F300093C0E09146098E2F90E0FC013197E83054
:104F4000F10508F084C0EB57FF4F0C94592E809167
:104F500079030E945F0E182F83E0809346096091C9
:104F600079030AC080912C0C0E945F0E182F83E0F9
:104F70008093460960912C0C8091070F9091080F47
:104F80000E94D5059093080F8093070F5EC0E091B3
:104F9000A604F0E0EE0FFF1FE158FC4F81810E9454
:104FA0005F0E182FE090A604CE2DD0E0CC0FDD1FB1
:104FB000FE01E158FC4F61818091070F9091080F2D
:104FC0000E94D5059093080F8093070F9091750369
:104FD0009F5F9093750381E0E8121EC080913702B5
:104FE000E0913B02F0913C02E80FF11D20818F5FC0
:104FF0008093370230913802381720F482E0809392
:10500000810301C0F22EC158DC4F8881823021F02B
:105010009F3F11F0F98219C084E012C08091070F00
:105020000E945F0E182F85E00BC08091080F0E9430
:105030005F0E182F86E004C00E94710E182F87E0C3
:105040008093460902C088E003C0112329F089E05B
:10505000809346090E942A020FBFFF91EF91DF91D2
:10506000CF91BF91AF919F918F917F916F915F9100
:105070004F913F912F911F910F91FF90EF900F90C3
:105080000BBE0F900FBE0F901F9018951F920F929E
:105090000FB60F9211248F938091C80087FD8091E5
:1050A000CE008F910F900FBE0F901F90189578949F
:1050B0001F920F920FB60F9211240F900FBE0F90F8
:1050C0001F90189578941F920F920FB60F9211248B
:1050D0000F900FBE0F901F90189578941F920F920B
:1050E0000FB60F9211240F900FBE0F901F901895BE
:1050F00078941F920F920FB60F9211240F900FBE4B
:105100000F901F90189578941F920F920FB60F92E0
:1051100011248F939F9380919600909197009F9177
:105120008F910F900FBE0F901F90189578941F923B
:105130000F920FB60F9211242F938F939F932FB737
:10514000F89480917003909171030196909371038C
:10515000809370032FBF9F918F912F910F900FBE5F
:105160000F901F901895EDE3F4E040E050E09FEFC2
:1051700020E03081632F6370633049F433FD07C052
:10518000628173816417750710F0AB01922F2F5F56
:105190003B962A3071F7282F30E04217530710F062
:1051A000892F08958FEF0895CF93DF93EC010E942C
:1051B000B905282F9091920289131CC08091D90BB8
:1051C0009091DA0B8C179D0799F58FEF9FEF9093D5
:1051D000DA0B8093D90B1092DC0B1092DB0B109240
:1051E000DD0B1092DE0B81E080934002DF91CF91C6
:1051F0000C94420291509093920288E02917F0F6A5
:10520000E22FF0E0DF0133E0AA0FBB1F3A95E1F790
:10521000AA52BD4F43E0EE0FFF1F4A95E1F7E2525D
:10522000FD4F382F01900D923A95E1F72F5FE6CFB1
:10523000DF91CF910895CF93DF93EC01FB012D8196
:1052400030E0322F22278E81282B21303105D9F5ED
:1052500080915202811115C0423109F053C082E59C
:105260009CE0892B09F44EC082E1A2E5BCE00190EC
:105270000D928A95E1F74093440C80E00E940B0266
:1052800041C08091D4028823D9F090919002A92F37
:10529000B0E0AA0FBB1FA25DB34F2D913C911197B7
:1052A0001D921C9281508093D4029F5F9A3019F412
:1052B0001092900202C0909390022115310521F4C2
:1052C0000E94CB041FC029C082E1D9011C96019025
:1052D0000D928A95E1F740912B024A30C0F49091EB
:1052E0002C02E92FF0E0EE0FFF1FE759F64F318354
:1052F000208381E0890F8A3039F080932C024F5F40
:1053000040932B02CE0109C010922C02F8CFC901A4
:105310000E948D020E948402F5CFDF91CF91089503
:10532000AC01209146022D30C0F490914702E92F44
:10533000F0E0EE0FFF1FEE54F44F5183408381E005
:10534000890F8D3019F08093470202C010924702F6
:105350002F5F2093460280E0089581E008952F9208
:105360003F924F925F926F927F928F929F92AF92F5
:10537000BF92CF92DF92EF92FF920F931F93CF9342
:10538000DF9300D000D000D0CDB7DEB7482F50E07B
:105390002BE0829FF0011124E85CFB4F958192FF86
:1053A00002C09B7F95839BE0949F9001959F300D59
:1053B0001124D901A85CBB4F7D0112969C911297D4
:1053C000262F291B12966C93129713963C911397D4
:1053D0003F5F13963C9313972223A1F014969C9160
:1053E00014979150920F14969C9314972B3050F071
:1053F000162F6D917C910E94A705F701128381E021
:105400008383B6C08BE0849FF001859FF00D11244B
:10541000E85CFB4F848190E0830F911D03971CF49F
:10542000233008F4A5C08BE0849FF001859FF00D28
:105430001124E85CFB4F208131813C832B838EE378
:1054400094E09E838D838AE0C82ED12C99E0892E2A
:1054500024ECA22E29E0B22EED81FE8136978081C8
:105460009181AB81BC818A179B0709F077C0ED80E1
:10547000FE80F70192907F0190FE70C02D803E80EB
:10548000F3E02F1A3108D1010C91ED81FE813297A2
:10549000FA83E9834080400E10E0512C612C712C7E
:1054A00091FC1FC09801AAEFB0E00E94D52DA30186
:1054B00092010E940C2EAD81BE812C93222359F0C3
:1054C000622F70E0C5010E94F82D6B3F71051CF43E
:1054D000962F872F02C09FEF8FEFED81FE81918382
:1054E0008283892D8260D7018C93ED81FE81F080CB
:1054F0009801AAEFB0E00E94D52DA30192010E946D
:105500000C2E822F90E0F9E0FF9E800D911D11245A
:10551000B6010E94F82DAD81BE816C93F10110821D
:10552000A981BA811C926115710531F0C5010E94F3
:10553000F82D6B3F710514F06FEF7FEFED81FE8169
:1055400021813281829EC001839E900D1124860F9D
:10555000971FB6010E94E42D728361832D813E81E5
:10556000255F3F4F3E832D832C5A344009F074CF82
:1055700026960FB6F894DEBF0FBECDBFDF91CF9158
:105580001F910F91FF90EF90DF90CF90BF90AF9061
:105590009F908F907F906F905F904F903F902F9053
:1055A0000895CFB7F89414BE88E10FB6F8948093AD
:1055B0006000109260000FBE4FE150E06FEF70E0AE
:1055C0008AE992E00E94892E8FEF8093250C8093C8
:1055D000EC0E56985E9854985C9880916F008F7D81
:1055E00080936F00209A0E94B301279A0E94B10114
:1055F0000E9A169A83E893E090938E0280938D0220
:1056000010926E038AE58093260381E080938100E7
:1056100080E28093B60083E08093B1002091840003
:10562000309185008AE740918400509185004217AF
:10563000530708F481509A018111F5CF8091B2008F
:105640009091B2009817E1F3209184003091850089
:105650008091B2009091B2009817E1F3809184009C
:10566000909185004096821B930B55E09695879507
:105670005A95E1F79093270C8093260C1092B10075
:10568000109281001092B6001092B2001092850024
:10569000109284008FEF87BB86BB8091B600857126
:1056A000E1F70A9A099A089A129A119A109A18B868
:1056B0008FEF87B90C98149810929500109294006F
:1056C0008091710081608093710080919100887F4A
:1056D00082608093910010928500109284008091E6
:1056E0006F00816080936F0080918100887F82606D
:1056F0008093810080E0877F8F7E8F7D8F7B8F7787
:1057000080937A000E94F0018F3F19F00E94E21509
:10571000F9CF86E695E0E8E5F2E0819391938F96E4
:1057200022E0E038F207C9F784E18093CE021092BC
:10573000090F81E19DE0EEE2FCE0819391938F9669
:105740002CE0E234F207C9F7DAE0D093D4021092E9
:10575000900202E016E06091260C7091270CCB01BC
:10576000A0E0B0E0BC01CD012CE0660F771F881FE0
:10577000991F2A95D1F7C12C31EED32EE12CF12CB3
:10578000A70196010E940C2E215031092093C400DC
:105790003093C5000093C0001093C2001092C10066
:1057A0006091260C7091270CCB01A0E0B0E0BC0109
:1057B000CD014CE0660F771F881F991F4A95D1F7DE
:1057C000A70196010E940C2E215031092093CC0094
:1057D0003093CD000093C8001093CA001092C90006
:1057E00084E490E09093E00B8093DF0B10927F03B2
:1057F00010928103D0934609109275031092790399
:1058000010922C0C1092080F1092070F1092100D8E
:105810001092A6040E94DE0110922104109220042E
:1058200010921F041092810284E199E0EFEEFEE0F5
:105830008193919304962FE0E730F207C9F78CE04B
:105840008093EE031092750C8EE799E0EEE4F9E098
:10585000819391938F9629E0E636F207C9F78CE0A1
:105860008093EF0310926F03DFEFD09378030E94D1
:10587000BC072091190230911A02C9010196A0E0DB
:10588000B0E080936A0390936B03A0936C03B09392
:105890006D038BE79CE090938402809383028AEAF5
:1058A0009CE0909386028093850289ED9CE0909322
:1058B0008802809387028FEF9FEF9093E40B809391
:1058C000E30B9093E60B8093E50B9093E80B8093AA
:1058D000E70B9093EA0B8093E90B9093EC0B80938A
:1058E000EB0B2295207F20935402D093D502109287
:1058F0004302109242021092280C1092290C10922E
:105900002A0C10922B0C109282029093DA0B809347
:10591000D90B1092DC0B1092DB0B1092DD0B109266
:10592000DE0B109292028DE393E0892B19F08FE346
:1059300093E002C08DE393E0909377038093760326
:1059400085E693E090930A0D8093090D85E395E039
:1059500090937B0380937A0310928F0280E090E013
:10596000FC01E85CFB4F15820B968E369105C1F762
:10597000109294021092A7048091B60080628093E6
:10598000B6008091B60081FDFCCF82E08093B0002C
:105990008091B60080FDFCCF83E08093B1008091C0
:1059A000B60083FDFCCF86EE8093B300809170003B
:1059B0008260809370000E945C090E94F0018F3F1A
:1059C00019F00E94E215F9CFCFBF78941092DF034F
:1059D00084E08093DE039091190280911A029093E3
:1059E000E1038093E0031092DD031092DC030E9438
:1059F000B50180912E0381111AC080915502811149
:105A000016C080910D0D813029F4809164058111BB
:105A10000EC003C0853009F4C6C083E080935502F0
:105A20000E941F1585E080932E03C0E001C0C5E0F1
:105A30000E94AA13C1110E948402809149028260CF
:105A4000809349020E94330490936709809366090A
:105A50008091420281112FC081E08093420280E850
:105A600090E0A0E0B0E08093080290930902A09338
:105A70000A02B0930B020E94F6030E94E9026093AF
:105A8000C3047093C4048093C5049093C60480E05B
:105A900090E2A0E0B0E08093C7049093C804A09384
:105AA000C904B093CA048091CB048E7F8260809336
:105AB000CB040E9445021092430C89E08093680950
:105AC00010922302109222021092270210922602B4
:105AD000109225021092240210921F0210921E02B0
